{
  "_format": "hh-sol-artifact-1",
  "contractName": "RPS",
  "sourceName": "contracts/RPS.sol",
  "abi": [
    {
      "anonymous": false,
      "inputs": [
        {
          "indexed": true,
          "internalType": "uint256",
          "name": "gameId",
          "type": "uint256"
        },
        {
          "indexed": true,
          "internalType": "address",
          "name": "player1",
          "type": "address"
        },
        {
          "indexed": true,
          "internalType": "address",
          "name": "player2",
          "type": "address"
        },
        {
          "indexed": false,
          "internalType": "uint256",
          "name": "stake",
          "type": "uint256"
        },
        {
          "indexed": false,
          "internalType": "address",
          "name": "resolver",
          "type": "address"
        },
        {
          "indexed": false,
          "internalType": "uint256",
          "name": "timestamp",
          "type": "uint256"
        }
      ],
      "name": "GameResolved",
      "type": "event"
    },
    {
      "anonymous": false,
      "inputs": [
        {
          "indexed": true,
          "internalType": "uint256",
          "name": "gameId",
          "type": "uint256"
        },
        {
          "indexed": true,
          "internalType": "address",
          "name": "player1",
          "type": "address"
        },
        {
          "indexed": true,
          "internalType": "address",
          "name": "player2",
          "type": "address"
        },
        {
          "indexed": false,
          "internalType": "uint256",
          "name": "stake",
          "type": "uint256"
        },
        {
          "indexed": false,
          "internalType": "uint256",
          "name": "timeout",
          "type": "uint256"
        }
      ],
      "name": "NewGame",
      "type": "event"
    },
    {
      "anonymous": false,
      "inputs": [
        {
          "indexed": true,
          "internalType": "uint256",
          "name": "gameId",
          "type": "uint256"
        },
        {
          "indexed": false,
          "internalType": "enum RPS.Move",
          "name": "move",
          "type": "uint8"
        },
        {
          "indexed": false,
          "internalType": "uint256",
          "name": "timestamp",
          "type": "uint256"
        }
      ],
      "name": "Player2MoveCommitted",
      "type": "event"
    },
    {
      "inputs": [
        {
          "internalType": "bytes32",
          "name": "_c1Hash",
          "type": "bytes32"
        },
        {
          "internalType": "address",
          "name": "_j2",
          "type": "address"
        },
        {
          "internalType": "uint256",
          "name": "_timeout",
          "type": "uint256"
        }
      ],
      "name": "createGame",
      "outputs": [],
      "stateMutability": "payable",
      "type": "function"
    },
    {
      "inputs": [
        {
          "internalType": "uint256",
          "name": "",
          "type": "uint256"
        }
      ],
      "name": "games",
      "outputs": [
        {
          "internalType": "address",
          "name": "j1",
          "type": "address"
        },
        {
          "internalType": "address",
          "name": "j2",
          "type": "address"
        },
        {
          "internalType": "bytes32",
          "name": "c1Hash",
          "type": "bytes32"
        },
        {
          "internalType": "enum RPS.Move",
          "name": "c2",
          "type": "uint8"
        },
        {
          "internalType": "uint256",
          "name": "stake",
          "type": "uint256"
        },
        {
          "internalType": "uint256",
          "name": "lastAction",
          "type": "uint256"
        },
        {
          "internalType": "bool",
          "name": "resolved",
          "type": "bool"
        },
        {
          "internalType": "uint256",
          "name": "timeout",
          "type": "uint256"
        },
        {
          "internalType": "address",
          "name": "winner",
          "type": "address"
        }
      ],
      "stateMutability": "view",
      "type": "function"
    },
    {
      "inputs": [],
      "name": "getGamesLength",
      "outputs": [
        {
          "internalType": "uint256",
          "name": "",
          "type": "uint256"
        }
      ],
      "stateMutability": "view",
      "type": "function"
    },
    {
      "inputs": [
        {
          "internalType": "uint8",
          "name": "_c",
          "type": "uint8"
        },
        {
          "internalType": "uint256",
          "name": "_salt",
          "type": "uint256"
        }
      ],
      "name": "hash",
      "outputs": [
        {
          "internalType": "bytes32",
          "name": "",
          "type": "bytes32"
        }
      ],
      "stateMutability": "pure",
      "type": "function"
    },
    {
      "inputs": [
        {
          "internalType": "uint256",
          "name": "_gameId",
          "type": "uint256"
        }
      ],
      "name": "j1Timeout",
      "outputs": [],
      "stateMutability": "nonpayable",
      "type": "function"
    },
    {
      "inputs": [
        {
          "internalType": "uint256",
          "name": "_gameId",
          "type": "uint256"
        }
      ],
      "name": "j2Timeout",
      "outputs": [],
      "stateMutability": "nonpayable",
      "type": "function"
    },
    {
      "inputs": [
        {
          "internalType": "uint256",
          "name": "_gameId",
          "type": "uint256"
        },
        {
          "internalType": "enum RPS.Move",
          "name": "_c2",
          "type": "uint8"
        }
      ],
      "name": "play",
      "outputs": [],
      "stateMutability": "payable",
      "type": "function"
    },
    {
      "inputs": [
        {
          "internalType": "enum RPS.Move",
          "name": "_c1",
          "type": "uint8"
        },
        {
          "internalType": "uint256",
          "name": "_gameId",
          "type": "uint256"
        },
        {
          "internalType": "uint256",
          "name": "_salt",
          "type": "uint256"
        }
      ],
      "name": "solve",
      "outputs": [],
      "stateMutability": "nonpayable",
      "type": "function"
    }
  ],
  "bytecode": "0x608060405234801561001057600080fd5b506001600081905550612307806100286000396000f3fe60806040526004361061007b5760003560e01c80638d44711f1161004e5780638d44711f1461014957806395e8f69414610172578063a3582ce81461018e578063a7d4d36c146101b75761007b565b8063117a5b90146100805780635cd7692e146100c5578063654f1ccb146100e157806367ef4c131461010c575b600080fd5b34801561008c57600080fd5b506100a760048036038101906100a291906118a1565b6101e0565b6040516100bc99989796959493929190611b89565b60405180910390f35b6100df60048036038101906100da91906118ce565b6102b8565b005b3480156100ed57600080fd5b506100f66105a9565b6040516101039190611d9a565b60405180910390f35b34801561011857600080fd5b50610133600480360381019061012e919061190e565b6105b6565b6040516101409190611c16565b60405180910390f35b34801561015557600080fd5b50610170600480360381019061016b919061184e565b6105e9565b005b61018c600480360381019061018791906117fb565b610aca565b005b34801561019a57600080fd5b506101b560048036038101906101b091906118a1565b610dbe565b005b3480156101c357600080fd5b506101de60048036038101906101d991906118a1565b61115f565b005b600181815481106101f057600080fd5b90600052602060002090600902016000915090508060000160009054906101000a900473ffffffffffffffffffffffffffffffffffffffff16908060010160009054906101000a900473ffffffffffffffffffffffffffffffffffffffff16908060020154908060030160009054906101000a900460ff16908060040154908060050154908060060160009054906101000a900460ff16908060070154908060080160009054906101000a900473ffffffffffffffffffffffffffffffffffffffff16905089565b81600181815481106102cd576102cc612073565b5b906000526020600020906009020160000160009054906101000a900473ffffffffffffffffffffffffffffffffffffffff1673ffffffffffffffffffffffffffffffffffffffff163373ffffffffffffffffffffffffffffffffffffffff1614806103a857506001818154811061034757610346612073565b5b906000526020600020906009020160010160009054906101000a900473ffffffffffffffffffffffffffffffffffffffff1673ffffffffffffffffffffffffffffffffffffffff163373ffffffffffffffffffffffffffffffffffffffff16145b6103e7576040517f08c379a00000000000000000000000000000000000000000000000000000000081526004016103de90611c9a565b60405180910390fd5b6103ef61150d565b6000600581111561040357610402612044565b5b6001848154811061041757610416612073565b5b906000526020600020906009020160030160009054906101000a900460ff16600581111561044857610447612044565b5b14610488576040517f08c379a000000000000000000000000000000000000000000000000000000000815260040161047f90611d1a565b60405180910390fd5b6000600581111561049c5761049b612044565b5b8260058111156104af576104ae612044565b5b14156104ba57600080fd5b600183815481106104ce576104cd612073565b5b90600052602060002090600902016004015434146104eb57600080fd5b4260018481548110610500576104ff612073565b5b906000526020600020906009020160050181905550816001848154811061052a57610529612073565b5b906000526020600020906009020160030160006101000a81548160ff0219169083600581111561055d5761055c612044565b5b0217905550827ff6db8defe22057db50d1b5dcda146ae20bcd809f75c33511a449311aa4134d188342604051610594929190611c31565b60405180910390a26105a461155d565b505050565b6000600180549050905090565b600082826040516020016105cb929190611b5d565b60405160208183030381529060405280519060200120905092915050565b6000600183815481106105ff576105fe612073565b5b906000526020600020906009020190506000600581111561062357610622612044565b5b84600581111561063657610635612044565b5b141561064157600080fd5b6000600581111561065557610654612044565b5b8160030160009054906101000a900460ff16600581111561067957610678612044565b5b14156106ba576040517f08c379a00000000000000000000000000000000000000000000000000000000081526004016106b190611d5a565b60405180910390fd5b8060000160009054906101000a900473ffffffffffffffffffffffffffffffffffffffff1673ffffffffffffffffffffffffffffffffffffffff163373ffffffffffffffffffffffffffffffffffffffff161461074c576040517f08c379a000000000000000000000000000000000000000000000000000000000815260040161074390611d3a565b60405180910390fd5b8060060160009054906101000a900460ff161561079e576040517f08c379a000000000000000000000000000000000000000000000000000000000815260040161079590611c7a565b60405180910390fd5b80600201546107bf8560058111156107b9576107b8612044565b5b846105b6565b146107c957600080fd5b6107e4848260030160009054906101000a900460ff16611567565b1561089c578060000160009054906101000a900473ffffffffffffffffffffffffffffffffffffffff168160080160006101000a81548173ffffffffffffffffffffffffffffffffffffffff021916908373ffffffffffffffffffffffffffffffffffffffff16021790555061088e8160000160009054906101000a900473ffffffffffffffffffffffffffffffffffffffff16826004015460026108899190611e87565b611676565b61089757600080fd5b6109e7565b6108b78160030160009054906101000a900460ff1685611567565b1561096f578060010160009054906101000a900473ffffffffffffffffffffffffffffffffffffffff168160080160006101000a81548173ffffffffffffffffffffffffffffffffffffffff021916908373ffffffffffffffffffffffffffffffffffffffff1602179055506109618160010160009054906101000a900473ffffffffffffffffffffffffffffffffffffffff168260040154600261095c9190611e87565b611676565b61096a57600080fd5b6109e6565b6109a18160000160009054906101000a900473ffffffffffffffffffffffffffffffffffffffff168260040154611676565b6109aa57600080fd5b6109dc8160010160009054906101000a900473ffffffffffffffffffffffffffffffffffffffff168260040154611676565b6109e557600080fd5b5b5b60018160060160006101000a81548160ff021916908315150217905550600081600401819055508060010160009054906101000a900473ffffffffffffffffffffffffffffffffffffffff1673ffffffffffffffffffffffffffffffffffffffff168160000160009054906101000a900473ffffffffffffffffffffffffffffffffffffffff1673ffffffffffffffffffffffffffffffffffffffff16847f8f34c82a99ec49488085281c805fdbaec3f779b87b05d927af61228076fcb3f784600401543342604051610abc93929190611db5565b60405180910390a450505050565b610ad261150d565b610ada6116ed565b33816000019073ffffffffffffffffffffffffffffffffffffffff16908173ffffffffffffffffffffffffffffffffffffffff168152505082816020019073ffffffffffffffffffffffffffffffffffffffff16908173ffffffffffffffffffffffffffffffffffffffff16815250508381604001818152505034816080018181525050428160a0018181525050818160e0018181525050600081610100019073ffffffffffffffffffffffffffffffffffffffff16908173ffffffffffffffffffffffffffffffffffffffff1681525050600181908060018154018082558091505060019003906000526020600020906009020160009091909190915060008201518160000160006101000a81548173ffffffffffffffffffffffffffffffffffffffff021916908373ffffffffffffffffffffffffffffffffffffffff16021790555060208201518160010160006101000a81548173ffffffffffffffffffffffffffffffffffffffff021916908373ffffffffffffffffffffffffffffffffffffffff1602179055506040820151816002015560608201518160030160006101000a81548160ff02191690836005811115610c9b57610c9a612044565b5b02179055506080820151816004015560a0820151816005015560c08201518160060160006101000a81548160ff02191690831515021790555060e082015181600701556101008201518160080160006101000a81548173ffffffffffffffffffffffffffffffffffffffff021916908373ffffffffffffffffffffffffffffffffffffffff1602179055505050806020015173ffffffffffffffffffffffffffffffffffffffff16816000015173ffffffffffffffffffffffffffffffffffffffff1660018080549050610d6f9190611ee1565b7fc6033c99d30021b6f626ea532bac1876d2730158b35f58c399d8311d1c08df6584608001518560e00151604051610da8929190611dec565b60405180910390a450610db961155d565b505050565b8060018181548110610dd357610dd2612073565b5b906000526020600020906009020160000160009054906101000a900473ffffffffffffffffffffffffffffffffffffffff1673ffffffffffffffffffffffffffffffffffffffff163373ffffffffffffffffffffffffffffffffffffffff161480610eae575060018181548110610e4d57610e4c612073565b5b906000526020600020906009020160010160009054906101000a900473ffffffffffffffffffffffffffffffffffffffff1673ffffffffffffffffffffffffffffffffffffffff163373ffffffffffffffffffffffffffffffffffffffff16145b610eed576040517f08c379a0000000000000000000000000000000000000000000000000000000008152600401610ee490611c9a565b60405180910390fd5b610ef561150d565b600060018381548110610f0b57610f0a612073565b5b9060005260206000209060090201905060006005811115610f2f57610f2e612044565b5b8160030160009054906101000a900460ff166005811115610f5357610f52612044565b5b14610f93576040517f08c379a0000000000000000000000000000000000000000000000000000000008152600401610f8a90611cba565b60405180910390fd5b8060060160009054906101000a900460ff1615610fe5576040517f08c379a0000000000000000000000000000000000000000000000000000000008152600401610fdc90611c7a565b60405180910390fd5b80600701548160050154610ff99190611e31565b421161103a576040517f08c379a000000000000000000000000000000000000000000000000000000000815260040161103190611c5a565b60405180910390fd5b61106c8160000160009054906101000a900473ffffffffffffffffffffffffffffffffffffffff168260040154611676565b61107557600080fd5b60018160060160006101000a81548160ff021916908315150217905550600081600401819055508060010160009054906101000a900473ffffffffffffffffffffffffffffffffffffffff1673ffffffffffffffffffffffffffffffffffffffff168160000160009054906101000a900473ffffffffffffffffffffffffffffffffffffffff1673ffffffffffffffffffffffffffffffffffffffff16847f8f34c82a99ec49488085281c805fdbaec3f779b87b05d927af61228076fcb3f78460040154334260405161114a93929190611db5565b60405180910390a45061115b61155d565b5050565b806001818154811061117457611173612073565b5b906000526020600020906009020160000160009054906101000a900473ffffffffffffffffffffffffffffffffffffffff1673ffffffffffffffffffffffffffffffffffffffff163373ffffffffffffffffffffffffffffffffffffffff16148061124f5750600181815481106111ee576111ed612073565b5b906000526020600020906009020160010160009054906101000a900473ffffffffffffffffffffffffffffffffffffffff1673ffffffffffffffffffffffffffffffffffffffff163373ffffffffffffffffffffffffffffffffffffffff16145b61128e576040517f08c379a000000000000000000000000000000000000000000000000000000000815260040161128590611c9a565b60405180910390fd5b61129661150d565b6000600183815481106112ac576112ab612073565b5b90600052602060002090600902019050600060058111156112d0576112cf612044565b5b8160030160009054906101000a900460ff1660058111156112f4576112f3612044565b5b1415611335576040517f08c379a000000000000000000000000000000000000000000000000000000000815260040161132c90611cda565b60405180910390fd5b8060060160009054906101000a900460ff1615611387576040517f08c379a000000000000000000000000000000000000000000000000000000000815260040161137e90611c7a565b60405180910390fd5b8060070154816005015461139b9190611e31565b42116113dc576040517f08c379a00000000000000000000000000000000000000000000000000000000081526004016113d390611cfa565b60405180910390fd5b61141a8160010160009054906101000a900473ffffffffffffffffffffffffffffffffffffffff16826004015460026114159190611e87565b611676565b61142357600080fd5b60018160060160006101000a81548160ff021916908315150217905550600081600401819055508060010160009054906101000a900473ffffffffffffffffffffffffffffffffffffffff1673ffffffffffffffffffffffffffffffffffffffff168160000160009054906101000a900473ffffffffffffffffffffffffffffffffffffffff1673ffffffffffffffffffffffffffffffffffffffff16847f8f34c82a99ec49488085281c805fdbaec3f779b87b05d927af61228076fcb3f7846004015433426040516114f893929190611db5565b60405180910390a45061150961155d565b5050565b60026000541415611553576040517f08c379a000000000000000000000000000000000000000000000000000000000815260040161154a90611d7a565b60405180910390fd5b6002600081905550565b6001600081905550565b600081600581111561157c5761157b612044565b5b83600581111561158f5761158e612044565b5b141561159e5760009050611670565b600060058111156115b2576115b1612044565b5b8360058111156115c5576115c4612044565b5b14156115d45760009050611670565b60028260058111156115e9576115e8612044565b5b6115f39190611fb5565b600284600581111561160857611607612044565b5b6116129190611fb5565b14156116465781600581111561162b5761162a612044565b5b83600581111561163e5761163d612044565b5b109050611670565b81600581111561165957611658612044565b5b83600581111561166c5761166b612044565b5b1190505b92915050565b6000808373ffffffffffffffffffffffffffffffffffffffff168360405161169d90611b48565b60006040518083038185875af1925050503d80600081146116da576040519150601f19603f3d011682016040523d82523d6000602084013e6116df565b606091505b505090508091505092915050565b604051806101200160405280600073ffffffffffffffffffffffffffffffffffffffff168152602001600073ffffffffffffffffffffffffffffffffffffffff168152602001600080191681526020016000600581111561175157611750612044565b5b8152602001600081526020016000815260200160001515815260200160008152602001600073ffffffffffffffffffffffffffffffffffffffff1681525090565b6000813590506117a181612265565b92915050565b6000813590506117b68161227c565b92915050565b6000813590506117cb81612293565b92915050565b6000813590506117e0816122a3565b92915050565b6000813590506117f5816122ba565b92915050565b600080600060608486031215611814576118136120a2565b5b6000611822868287016117a7565b935050602061183386828701611792565b9250506040611844868287016117d1565b9150509250925092565b600080600060608486031215611867576118666120a2565b5b6000611875868287016117bc565b9350506020611886868287016117d1565b9250506040611897868287016117d1565b9150509250925092565b6000602082840312156118b7576118b66120a2565b5b60006118c5848285016117d1565b91505092915050565b600080604083850312156118e5576118e46120a2565b5b60006118f3858286016117d1565b9250506020611904858286016117bc565b9150509250929050565b60008060408385031215611925576119246120a2565b5b6000611933858286016117e6565b9250506020611944858286016117d1565b9150509250929050565b61195781611f15565b82525050565b61196681611f27565b82525050565b61197581611f33565b82525050565b61198481611f87565b82525050565b6000611997601183611e20565b91506119a2826120b4565b602082019050919050565b60006119ba601583611e20565b91506119c5826120dd565b602082019050919050565b60006119dd601183611e20565b91506119e882612106565b602082019050919050565b6000611a00601683611e20565b9150611a0b8261212f565b602082019050919050565b6000611a23601b83611e20565b9150611a2e82612158565b602082019050919050565b6000611a46601483611e20565b9150611a5182612181565b602082019050919050565b6000611a69601783611e20565b9150611a74826121aa565b602082019050919050565b6000611a8c601683611e20565b9150611a97826121d3565b602082019050919050565b6000611aaf601d83611e20565b9150611aba826121fc565b602082019050919050565b6000611ad2600083611e15565b9150611add82612225565b600082019050919050565b6000611af5601f83611e20565b9150611b0082612228565b602082019050919050565b611b1481611f70565b82525050565b611b2b611b2682611f70565b611f99565b82525050565b611b42611b3d82611f7a565b611fa3565b82525050565b6000611b5382611ac5565b9150819050919050565b6000611b698285611b31565b600182019150611b798284611b1a565b6020820191508190509392505050565b600061012082019050611b9f600083018c61194e565b611bac602083018b61194e565b611bb9604083018a61196c565b611bc6606083018961197b565b611bd36080830188611b0b565b611be060a0830187611b0b565b611bed60c083018661195d565b611bfa60e0830185611b0b565b611c0861010083018461194e565b9a9950505050505050505050565b6000602082019050611c2b600083018461196c565b92915050565b6000604082019050611c46600083018561197b565b611c536020830184611b0b565b9392505050565b60006020820190508181036000830152611c738161198a565b9050919050565b60006020820190508181036000830152611c93816119ad565b9050919050565b60006020820190508181036000830152611cb3816119d0565b9050919050565b60006020820190508181036000830152611cd3816119f3565b9050919050565b60006020820190508181036000830152611cf381611a16565b9050919050565b60006020820190508181036000830152611d1381611a39565b9050919050565b60006020820190508181036000830152611d3381611a5c565b9050919050565b60006020820190508181036000830152611d5381611a7f565b9050919050565b60006020820190508181036000830152611d7381611aa2565b9050919050565b60006020820190508181036000830152611d9381611ae8565b9050919050565b6000602082019050611daf6000830184611b0b565b92915050565b6000606082019050611dca6000830186611b0b565b611dd7602083018561194e565b611de46040830184611b0b565b949350505050565b6000604082019050611e016000830185611b0b565b611e0e6020830184611b0b565b9392505050565b600081905092915050565b600082825260208201905092915050565b6000611e3c82611f70565b9150611e4783611f70565b9250827fffffffffffffffffffffffffffffffffffffffffffffffffffffffffffffffff03821115611e7c57611e7b611fe6565b5b828201905092915050565b6000611e9282611f70565b9150611e9d83611f70565b9250817fffffffffffffffffffffffffffffffffffffffffffffffffffffffffffffffff0483118215151615611ed657611ed5611fe6565b5b828202905092915050565b6000611eec82611f70565b9150611ef783611f70565b925082821015611f0a57611f09611fe6565b5b828203905092915050565b6000611f2082611f50565b9050919050565b60008115159050919050565b6000819050919050565b6000819050611f4b82612251565b919050565b600073ffffffffffffffffffffffffffffffffffffffff82169050919050565b6000819050919050565b600060ff82169050919050565b6000611f9282611f3d565b9050919050565b6000819050919050565b6000611fae826120a7565b9050919050565b6000611fc082611f70565b9150611fcb83611f70565b925082611fdb57611fda612015565b5b828206905092915050565b7f4e487b7100000000000000000000000000000000000000000000000000000000600052601160045260246000fd5b7f4e487b7100000000000000000000000000000000000000000000000000000000600052601260045260246000fd5b7f4e487b7100000000000000000000000000000000000000000000000000000000600052602160045260246000fd5b7f4e487b7100000000000000000000000000000000000000000000000000000000600052603260045260246000fd5b600080fd5b60008160f81b9050919050565b7f47616d65206e6f74206f76657220796574000000000000000000000000000000600082015250565b7f47616d6520616c7265616479207265736f6c7665640000000000000000000000600082015250565b7f4e6f742061207061727469636970616e74000000000000000000000000000000600082015250565b7f506c796165723220616c726561647920706c6179656400000000000000000000600082015250565b7f506c61796572203220686173206e6f7420706c61796564207965740000000000600082015250565b7f47616d65206973206e6f74206f76657220796574000000000000000000000000600082015250565b7f506c61796572203220616c726561647920706c61796564000000000000000000600082015250565b7f4f6e6c7920506c6179657220312063616e2063616c6c00000000000000000000600082015250565b7f506c61796572203220686173206e6f74206d6164652061206d6f76652e000000600082015250565b50565b7f5265656e7472616e637947756172643a207265656e7472616e742063616c6c00600082015250565b6006811061226257612261612044565b5b50565b61226e81611f15565b811461227957600080fd5b50565b61228581611f33565b811461229057600080fd5b50565b600681106122a057600080fd5b50565b6122ac81611f70565b81146122b757600080fd5b50565b6122c381611f7a565b81146122ce57600080fd5b5056fea2646970667358221220129d0f98ac3b395fa6ed4919af638a1e9a6bb9300f20e8346615727054a9886d64736f6c63430008070033",
  "linkReferences": {},
  "deployedLinkReferences": {}
}